:020000040800F2
:100000002004002005010008450900083D090008FA
:1000100041090008D1070008011500080000000090
:10002000000000000000000000000000B50A000809
:10003000D50700080000000047090008C90B0008A8
:100040001F0100081F0100081F0100081F01000810
:100050001F0100081F0100081F0100081F01000800
:100060001F0100081F0100081F0100081F010008F0
:100070001F0100081F0100081F0100081F010008E0
:100080001F0100081F0100081F0100081F010008D0
:100090001F0100081F0100081F0100081F010008C0
:1000A0001F0100081F0100081F0100081F010008B0
:1000B0001F0100081F0100081F0100081F010008A0
:1000C0001F0100081F0100081F0100081F01000890
:1000D0001F0100081F0100081F0100081F01000880
:1000E0001F0100081F0100081F010008DFF810D0E1
:1000F00000F030F800480047BD160008AFF300805C
:10010000200400200648804706480047FEE7FEE737
:10011000FEE7FEE7FEE7FEE7FEE7FEE7FEE7FEE7B7
:10012000CD0B0008ED00000830B50B46014600205D
:100130002022012409E021FA02F59D4205D303FAA9
:1001400002F5491B04FA02F52844151EA2F101022A
:10015000F1DC30BD064C074D06E0E06840F00103DD
:1001600094E8070098471034AC42F6D3FFF7C2FF7B
:1001700090170008B017000821B1826842F0010210
:10018000826003E0826822F00102826070470146CB
:1001900000208A6802F004020AB1012000E0002079
:1001A00070470146C86C80B2704702460020136851
:1001B0000B400BB1012000E00020704701460020F9
:1001C0008A6802F008020AB1012000E000207047AE
:1001D00030B502460020002350680F4C20400D79B6
:1001E0000C6844EA05242043506090680B4C204082
:1001F000D1E902542C434D7944EA450420439060F0
:10020000D06A20F470000C7C641EE4B2234340EA00
:100210000350D06230BD0000FFFEF0FFFDF7F1FF9C
:10022000F0B504460D4600200021092D11DDE068DF
:10023000A5F10A0606EB4607072606FA07F18843EA
:10024000A5F10A0606EB460603FA06F10843E0604C
:100250000CE0206905EB4507072606FA07F18843FD
:1002600005EB450603FA06F108432061072A0FDA79
:10027000606B561E06EB86071F2606FA07F18843B9
:10028000561E06EB860605FA06F10843606322E077
:100290000D2A0FDA206BD61F06EB86071F2606FAFB
:1002A00007F18843D61F06EB860605FA06F10843D8
:1002B000206310E0E06AA2F10D0606EB86071F2618
:1002C00006FA07F18843A2F10D0606EB860605FA49
:1002D00006F10843E062F0BD816841F008018160E9
:1002E000704721B1826842F4A002826003E0826814
:1002F00022F4A00282607047816841F004018160AD
:10030000704710B56FF0040000F04AFC10BD70B5E6
:1003100004464FF4FA7094FBF0F0C6B24FF4FA7052
:1003200094FBF0F100FB114085B205E04FF4FA7048
:1003300000F051FA701EC6B2002EF7D115B1284652
:1003400000F049FA70BD000010B5024800F0BFFE91
:1003500010BD00000004004000B587B0012104205A
:1003600000F01EFBC020ADF8180004208DF81B0023
:1003700003208DF81A0006A91B4800F050FA01214D
:10038000022000F0EDFA194800F08CFD03A801F0FE
:1003900025F80020ADF80C004FF6FF70ADF8100006
:1003A0000020ADF81200ADF80E0003A90F4800F0D0
:1003B000C3FF00231A4603210C4800F067FE68467D
:1003C00000F0DEFE0020ADF808006946074800F0A6
:1003D00081FE00200549243108800121034800F0F6
:1003E00045FD07B000BD00000008014000040040CA
:1003F00001490880704700002404004010B54FF008
:10040000804000F064FE10BD00B587B001210420DB
:1004100000F0C6FA0320ADF8180004208DF81B0088
:1004200003208DF81A0006A91D4800F0F8F90121F3
:10043000084600F095FA4FF0804000F033FD03A825
:1004400000F0CCFF0020ADF80C004FF6FF70ADF8C7
:1004500010000020ADF81200ADF80E0003A94FF017
:10046000804000F069FF00231A4603214FF08040CE
:1004700000F00CFE684600F083FE0020ADF8080096
:1004800069464FF0804000F025FE00204FF080418B
:1004900088840121880700F0E9FC07B000BD000056
:1004A000000801404FF080418884704701464906AA
:1004B000084A926942F00102064B9A61064A526864
:1004C00022F0E062044B5A601A4652680A435A60AE
:1004D00070470000001002400000014070B5044663
:1004E000002C0BDD4FF40051144800F023FA4FF4B8
:1004F0008051124800F020FAA5B219E0002C0CDA65
:100500004FF480510D4800F015FA4FF400510B489C
:1005100000F012FA604285B20AE04FF480510748B9
:1005200000F008FA4FF40051044800F003FA0025E7
:100530002946034800F0CFFE70BD0000000C0140CA
:10054000002C014070B50446002C0BDD4FF4004137
:10055000144800F0EFF94FF48041124800F0ECF934
:10056000A5B219E0002C0CDA4FF480410D4800F0E0
:10057000E1F94FF400410B4800F0DEF9604285B22A
:100580000AE04FF48041074800F0D4F94FF40041ED
:10059000044800F0CFF900252946034800F09DFEED
:1005A00070BD0000000C0140002C014000B589B076
:1005B0000121C80200F0F4F90121042000F0F0F953
:1005C0000121082000F0ECF94FF41060ADF8200094
:1005D00018208DF8230003208DF8220008A9224856
:1005E00000F01DF94FF47040ADF8200010208DF898
:1005F000230003208DF8220008A91C4800F00FF901
:1006000041F61F40ADF818000020ADF81400ADF819
:100610001A00ADF8160005A9154800F08DFE6020FF
:10062000ADF804000120ADF806000020ADF80C0084
:10063000ADF80A0001A90E4800F0ACFD08210C48F5
:1006400000F0F4FD01A90A4800F0FAFD082108486D
:1006500000F034FE0121064800F014FC012104489A
:1006600000F004FC09B000BD00080140000C01408E
:10067000002C014010B586B004460121042000F092
:100680008FF90121880300F08BF94FF40070ADF869
:10069000140018208DF8170003208DF8160005A906
:1006A000124800F0BCF84FF48060ADF8140004204C
:1006B0008DF8170005A90D4800F0B1F8019400204D
:1006C000ADF80800ADF80A00ADF80C00ADF8100068
:1006D0000C20ADF80E0001A9054800F0A1FE012193
:1006E000034800F084FE06B010BD00000008014081
:1006F0000038014070B50723012202210D48FFF7A1
:100700008FFD01210B48FFF7ECFD00BF02210948D6
:10071000FFF74BFD0028F9D00648FFF742FD0446DD
:1007200040F64260604340F6FF7190FBF1F085B205
:10073000284670BD0028014000B587B00121042083
:1007400000F02EF90420ADF8180000208DF81B00F1
:1007500006A91D4800F063F80121880200F020F985
:10076000002001908DF808008DF809004FF46020FA
:1007700003900020049001208DF8140001A9134873
:10078000FFF726FD4FF4004000F0DEF807230122BA
:1007900002210E48FFF744FD01210C48FFF7ECFC55
:1007A0000A48FFF799FD00BF0848FFF707FD00283A
:1007B000FAD10648FFF7A0FD00BF0448FFF7E7FCA9
:1007C0000028FAD107B000BD000801400028014010
:1007D00000BFFEE77047014642F228324A434FF01D
:1007E000E0235A6100229A611A46126942F001021E
:1007F0001A6100BF4FF0E022106900F001021AB147
:1008000000F48032002AF5D04FF0E022126922F085
:1008100001024FF0E0231A6100229A6170472DE92E
:10082000F041024600250026002000230024002776
:1008300091F803C00CF00F0591F803C00CF0100CF8
:10084000BCF1000F03D091F802C04CEA050591F805
:1008500000C0BCF1000F31D0146800202BE04FF035
:10086000010C0CFA00F3B1F800C00CEA03069E423A
:1008700020D183004FF00F0C0CFA03F7BC4305FAAC
:1008800003FC4CEA040491F803C0BCF1280F06D124
:100890004FF0010C0CFA00FCC2F814C00AE091F809
:1008A00003C0BCF1480F05D14FF0010C0CFA00FC5D
:1008B000C2F810C0401C0828D1D31460B1F800C0A1
:1008C000BCF1FF0F34DD546800202EE000F1080C6D
:1008D0004FF0010808FA0CF3B1F800C00CEA030667
:1008E0009E4221D183004FF00F0C0CFA03F7BC435A
:1008F00005FA03FC4CEA040491F803C0BCF1280F8C
:1009000005D100F1080C08FA0CF8C2F8148091F82F
:1009100003C0BCF1480F07D100F1080C4FF00108EB
:1009200008FA0CF8C2F81080401C0828CED3546096
:10093000BDE8F081416170470161704700BFFEE78B
:1009400000BFFEE77047704701460020034A506829
:1009500020F44040084350607047000000100240FF
:1009600029B1064AD2690243044BDA6104E0034A22
:10097000D2698243014BDA617047000000100240E7
:1009800029B1064A12690243044B1A6104E0034A82
:1009900012698243014B1A61704700000010024047
:1009A00029B1064A92690243044B9A6104E0034A62
:1009B00092698243014B9A61704700000010024027
:1009C00029B1064AD2680243044BDA6004E0034AC4
:1009D000D2688243014BDA60704700000010024089
:1009E00030B500210022002400232D4D6D6805F054
:1009F0000C0121B1042905D0082923D105E0294D96
:100A0000056022E0274D05601FE0254D6D6805F467
:100A10007012234D6D6805F48034022505EB924277
:100A20001CB9214D554305600BE01D4D6D6805F463
:100A300000351DB11C4D5543056002E0194D55436D
:100A4000056002E0174D056000BF00BF144D6D68E2
:100A500005F0F0010909154D6B5C0568DD40456046
:100A60000F4D6D6805F4E061090A104D6B5C456837
:100A7000DD4085600A4D6D6805F46051C90A0B4D73
:100A80006B5C4568DD40C560054D6D6805F440410F
:100A9000890B074D6B5CC568B5FBF3F5056130BD8F
:100AA0000010024000127A0000093D0006000020FC
:100AB00016000020704710B500F002F810BD0000CD
:100AC0000CB50020019000903348006840F480305D
:100AD0003149086000BF3048006800F400300090E1
:100AE0000198401C0190009818B90198B0F5A06FCA
:100AF000F1D12948006800F4003010B101200090C5
:100B000001E0002000900098012843D123480068AC
:100B100040F01000214908600846006820F00300FA
:100B200008600846006840F0020008601A48406803
:100B3000194948600846406848600846406840F4E3
:100B4000806048600846406820F47C104860084691
:100B5000406840F4E81048600846006840F0807043
:100B6000086000BF0C48006800F000700028F9D051
:100B70000948406820F0030007494860084640687B
:100B800040F00200486000BF0348406800F00C00DD
:100B90000828F9D10CBD00000010024000200240DE
:100BA000042808D14FF0E021096941F004014FF019
:100BB000E022116107E04FF0E021096921F0040112
:100BC0004FF0E022116170477047000010B51348E4
:100BD000006840F00100114908600846406810496B
:100BE00008400E494860084600680E4908400B4915
:100BF00008600846006820F48020086008464068C5
:100C000020F4FE0048604FF41F008860FFF753FF98
:100C10004FF000600449086010BD00000010024061
:100C20000000FFF8FFFFF6FE08ED00E0F0B50C460F
:100C3000154600220021068C4FF6FE773E400684C2
:100C4000028B018C4FF60C7632407E1C06EA0316AE
:100C50002E433243104EB0420ED0104EB0420BD055
:100C6000B0F1804F08D00E4EB04205D00D4EB042CC
:100C700002D00D4EB04206D14FF6FD76314044F021
:100C80000106314305E04FF6F576314044F00106A8
:100C9000314302830184F0BD002C01400034014047
:100CA0000004004000080040000C0040F0B50C4675
:100CB0001546002200210026078C4FF6EF7C07EA3C
:100CC0000C070784028B018C4FF6FF7707EA0416A6
:100CD00040F6FF473A404FF6FF7707EA03373A43BB
:100CE0004FF6FF7707EA05273A43114FB8420ED077
:100CF000104FB8420BD0B0F1804F08D00E4FB84221
:100D000005D00E4FB84202D00D4FB84206D14FF673
:100D1000DF77394046F01007394305E04FF65F773B
:100D2000394044F01007394302830184F0BD0000CC
:100D3000002C014000340140000400400008004045
:100D4000000C0040F0B50C4615460022002100269C
:100D5000078C4FF6FF6C07EA0C070784828B018C27
:100D60004FF6FF7707EA04264FF60C773A404FF626
:100D7000FF7707EA03172F433A43114FB8420ED0CB
:100D8000104FB8420BD0B0F1804F08D00E4FB84290
:100D900005D00E4FB84202D00D4FB84206D14FF6E3
:100DA000FF57394046F48077394305E04FF2FF574B
:100DB000394044F48077394382830184F0BD0000D8
:100DC000002C0140003401400004004000080040B5
:100DD000000C0040F0B50C4615460022002100260C
:100DE000078C4EF6FF7C07EA0C070784828B018C88
:100DF0004FF6FF7707EA043640F6FF473A404FF6D2
:100E0000FF7707EA05273A434FF6FF7707EA0337EC
:100E10003A43114FB8420ED0104FB8420BD0B0F148
:100E2000804F08D00E4FB84205D00E4FB84202D0C6
:100E30000D4FB84206D14DF6FF77394046F4805742
:100E4000394305E047F6FF57394044F480573943AA
:100E500082830184F0BD0000002C01400034014079
:100E60000004004000080040000C004021B102884E
:100E700042F00102028004E002884FF6FE731A403D
:100E80000280704731B1B0F8442042F40042A0F82B
:100E9000442005E0B0F84420C2F30E02A0F844203C
:100EA0007047000010B504466848844208D101210B
:100EB000C014FFF785FD0021E014FFF781FDC4E0B9
:100EC000B4F1804F08D101210846FFF759FD0021F8
:100ED0000120FFF755FDB8E05D48844208D10121AB
:100EE0000220FFF74DFD00210220FFF749FDACE095
:100EF0005848844208D101210420FFF741FD002118
:100F00000420FFF73DFDA0E05348844208D10121B1
:100F10000820FFF735FD00210820FFF731FD94E0A0
:100F20004E48844208D101211020FFF729FD0021FD
:100F30001020FFF725FD88E04948844208D10121AF
:100F40002020FFF71DFD00212020FFF719FD7CE088
:100F50004448844208D101214014FFF731FD0021AB
:100F60006014FFF72DFD70E03F48844209D1012154
:100F7000C804FFF725FD00214FF40020FFF720FDF6
:100F800063E03A48844209D101210805FFF718FDC2
:100F900000214FF48010FFF713FD56E034488442DF
:100FA00009D101214805FFF70BFD00214FF4001086
:100FB000FFF706FD49E02F48844208D10121402077
:100FC000FFF7DEFC00214020FFF7DAFC3DE02A4875
:100FD000844208D101218020FFF7D2FC002180202B
:100FE000FFF7CEFC31E02548844208D1012180156D
:100FF000FFF7C6FC0021A015FFF7C2FC25E0204842
:10100000844209D101210804FFF7DAFC00214FF4E2
:101010008030FFF7D5FC18E01A48844209D101213D
:101020004804FFF7CDFC00214FF40030FFF7C8FC67
:101030000BE01548844208D101218804FFF7C0FC69
:1010400000214FF48020FFF7BBFC10BD002C0140B5
:101050000004004000080040000C00400010004068
:101060000014004000340140004C01400050014099
:101070000054014000180040001C004000200040C7
:10108000004001400044014000480140F0B50C46DA
:1010900015461E460021002200230189028B038C85
:1010A0004FF6F877394021434FF6FC473A4040F27B
:1010B00001173A434FF6DD773B404FF6FF7707EADB
:1010C00006172F433B43018102830384F0BD014691
:1010D000888C704770B505460C46244885420ED072
:1010E000234885420BD0B5F1804F08D02148854276
:1010F00005D02148854202D02048854200D100E039
:1011000000BF208850B92389A28861882846FFF74C
:101110008DFDE188284600F0E3F825E020880428CA
:101120000AD12389A28861882846FFF7BFFDE1889C
:10113000284600F0DEF817E0208808280AD1238925
:10114000A28861882846FFF7FDFDE188284600F067
:10115000DDF809E02389A28861882846FFF73AFE76
:10116000E188284600F0DBF870BD0000002C01404B
:10117000003401400004004000080040000C004022
:10118000002101804180012181800021C1800181F5
:101190007047000070B5002400220023058C4FF634
:1011A000FE7635400584028C8388048B4FF68F755C
:1011B0002C40B51E2C400D882C43751E2A400D89ED
:1011C0002A434D882A43144DA8420BD0134DA84200
:1011D00008D0134DA84205D0124DA84202D0124D9E
:1011E000A84213D14FF6F7752A404D892A434FF68E
:1011F000FB752A408D882A434FF6FF652B404FF63A
:10120000FF552B408D892B43CD892B43838004834D
:10121000CD888586028470BD002C014000340140D9
:101220000040014000440140004801400A460021BE
:10123000018B4FF6F773194011430183704700008B
:1012400070B5002200230024058C4EF6FF76354051
:101250000584038C8488828B48F6FF752A404FF6FC
:10126000FF452A400D884FF6FF7606EA05252A43FA
:101270004DF6FF752B400D8906EA05352B434D8849
:1012800006EA05352B430B4DA84202D00A4DA84271
:1012900008D14BF6FF752C408D894FF6FF7606EA94
:1012A00085152C4384808283CD88A0F84050038428
:1012B00070BD0000002C0140003401400A460021AE
:1012C000818B4FF2FF7319404FF6FF7303EA02233D
:1012D00019438183704781867047A0F8401070479A
:1012E000028B4FF6F3731A400283028B0A43028388
:1012F0007047028B4FF2FF331A400283028B4FF686
:10130000FF7303EA01231A4302837047828B4FF66F
:10131000F3731A408283828B0A4382837047828BE5
:101320004FF2FF331A408283828B4FF6FF7303EA3A
:1013300001231A4382837047002202881D4B984282
:101340000ED01D4B98420BD0B0F1804F08D01B4BF4
:10135000984205D01A4B984202D01A4B984204D1B9
:101360004FF68F731A404B881A43174B984207D099
:10137000164B984204D04FF6FF431A40CB881A43CD
:1013800002808B8883850B8803850A4B98420BD09B
:10139000094B984208D00E4B984205D00D4B98420D
:1013A00002D00D4B984201D10B7A03860123838230
:1013B00070470000002C0140003401400004004050
:1013C00000080040000C00400010004000140040E5
:1013D0000040014000440140004801404FF6FF71C9
:1013E000818000210180C18041800172704721B15C
:1013F000828942F40052828104E082894DF6FF73B3
:101400001A408281704702460020B1F5007F00D16A
:1014100000BF13880B400BB1012000E00020704793
:101420002DE9F04786B005460E460024A24600BFCF
:10143000A1460027B08900B100BF2F462C8A4CF688
:10144000FF700440F08804432C82AC894EF6F31000
:101450000440B08831890843718908430443AC8152
:10146000AC8A4FF6FF400440B0890443AC8201A827
:10147000FFF7B6FA1F48874202D1DDF810A001E05D
:10148000DDF80CA0A88900F4004040B10AEBCA00C6
:1014900000EB0A1031684900B0FBF1F807E00AEBF5
:1014A000CA0000EB0A1031688900B0FBF1F8642033
:1014B000B8FBF0F004012009642101FB1089A88920
:1014C00000F4004040B1322000EBC900B0FBF1F065
:1014D00000F00700044308E0322000EB091064210B
:1014E000B0FBF1F000F00F0004432C8106B0BDE822
:1014F000F087000000380140C1F308028280704785
:1015000000BFFEE70FB4054B10B503A9044A0298CB
:1015100000F018F810BC5DF814FB000099160008E4
:101520001C00002002E008C8121F08C1002AFAD1DE
:1015300070477047002001E001C1121F002AFBD153
:10154000704700002DE9FF4F89B09B4604460025F7
:1015500006E025280BD05A460B999047641C6D1C59
:1015600020780028F5D10DB02846BDE8F08F00277F
:10157000B8460122474900E0074314F8013F203BE9
:1015800002FA03F00842F7D120782E2819D114F876
:10159000010F47F004072A280ED06FF02F022078A1
:1015A000A0F1300109290CD808EB880102EB4101B8
:1015B00000EB0108641CF2E70A98641C50F8048BE5
:1015C0000A9020780028CED0642808D0692806D058
:1015D00075281ED05A460B9990476D1C58E00A9901
:1015E0004FF00A0901C90A91002802DA40422D2170
:1015F00002E0390504D52B218DF82010012103E0EC
:10160000F90704D02021F7E78A4608AE0DE0002153
:10161000FAE70A994FF00A0901C90A91F7E7494622
:10162000FEF782FD303106F8011D0028F7D1ADEB41
:10163000060000F12009780701D44FF00108C845E1
:1016400002DDA8EB090000E000208046002706E04C
:1016500008A85A46C05D0B9990476D1C7F1C5745E2
:10166000F6DB04E030205A460B9990476D1CB8F128
:101670000001A8F10108F5DC05E016F8010B5A4657
:101680000B9990476D1CB9F10001A9F10109F4DC37
:10169000641C65E70928010070B504460D46E1B2F7
:1016A0000548FFF729FF00BF40210348FFF7ABFEC5
:1016B0000028F9D0204670BD00380140FEF721FE19
:1016C0004FF4E130FEF7D6FF1EA0FFF71BFF1FA06F
:1016D000FFF718FF0220FEF7E9FE0120FEF7E6FE05
:1016E000FEF764FFFEF738FEFEF78EFEFFF724F8E4
:1016F00027E01C48FEF7F2FE1A48FEF723FFFEF72C
:1017000023FE00B218490880FEF778FE00B21749A0
:1017100008800020FEF76CFE0020FEF7C3FEFEF7F7
:10172000E9FF13490880084603881048B0F90020F3
:101730000D48B0F900100FA0FFF7E4FE6420FEF79B
:10174000E6FDD6E720200D0A000000005854415263
:101750004B205442363631322044656D6F200D0ADD
:101760000000000030F8FFFF000000200200002011
:10177000040000204D413A256420204D423A256462
:10178000202056494E3A256420200D0A0000000012
:10179000B0170008000000202000000024150008F9
:1017A000D0170008200000200004000034150008B5
:1017B000000000000000000000000102030401021C
:1017C00003040607080902040608000000000000E0
:04000005080000ED02
:00000001FF
